:100000000C94CD000C94EC000C94EC000C94EC00DF
:100010000C94EC000C94EC000C94EC000C94EC00B0
:100020000C94EC000C94EC000C94EC000C94EC00A0
:100030000C94EC000C94EC000C943D040C94EC003B
:100040000C94EC000C94EC000C94EC000C94EC0080
:100050000C94EC000C94EC000C94EC000C94EC0070
:100060000C94EC000C94EC000C94EC000C94EC0060
:100070000C94EC000C94EC000C94EC000C94EC0050
:100080000C94EC000C94EC000C94EC000C94EC0040
:100090000C94EC000C94EC000C94EC000C94EC0030
:1000A0000C94EC000C94EC000C94EC000C94EC0020
:1000B0000C94EC000C94EC000C94EC000C94EC0010
:1000C0000C94EC000C94EC000C94EC000C94EC0000
:1000D0000C94EC000C94A3040C94EC000C94EC0035
:1000E0000C94EC000C94EC000C94EC000C94EC00E0
:1000F0000C94EC006E069806B806D806F8061807A9
:10010000380758077A0788089408A008AC08B80888
:10011000C408D008DC08E80807634236B79BD8A7B4
:100120001A39685618AEBAAB558C1D3CB7CC57631C
:10013000BD6DEDFD753EF6177231BF000000803FCA
:1001400008000000BE922449123EABAAAA2ABECDE6
:10015000CCCC4C3E00000080BEABAAAAAA3E000058
:100160000000BF000000803F000000000008417850
:10017000D3BB4387D1133D190E3CC3BD4282AD2B87
:100180003E68EC8276BED98FE1A93E4C80EFFFBE7F
:1001900001C4FF7F3F000000000011241FBECFEF0D
:1001A000CDBFDFE7DEBF15E4A0E0B0E4E2E9F7E2AF
:1001B00000E00BBF02C007900D92AC36B107D9F733
:1001C00025E4ACE6B5E401C01D92A03DB207E1F71D
:1001D0000E94BA030C94C7130C9400008091021083
:1001E00081FDFCCF08958F929F92AF92BF92CF92E4
:1001F000DF92EF92FF92CF93DF9380916E45811152
:10020000A9C10E9450088093B34580919645909172
:1002100097450E940F06EC01F090B3456F2D70E0FA
:1002200080E090E00E94350C28E53BE545EC52E487
:100230000E94C10C9B01AC0169E372ED8AE493E476
:100240000E941E0B4B015C016F2D70E080E090E07E
:100250000E94330C6B017C0120E030E040E050E470
:100260000E942E0D26E83DED46EC50E40E94C10CA4
:100270009B01AC01C501B4010E941F0B4B015C0145
:1002800020E030E040E450E4C701B6010E942E0DAA
:100290002AEF36EB43E15CE30E94C10C9B01AC0109
:1002A000C501B4010E941F0B4B015C0120E030E04E
:1002B00040E850E4C701B6010E942E0D2CE13AE857
:1002C0004CEE5AEB0E94C10C9B01AC01C501B4017C
:1002D0000E941F0B4B015C0120E030E040EA50E43B
:1002E000C701B6010E942E0D22EA31EA4DE957E31B
:1002F0000E94C10C9B01AC01C501B4010E941F0BFF
:100300004B015C0120E030E040EC50E4C701B60155
:100310000E942E0D27E83EEB4FE653E30E94C10CEE
:100320009B01AC01C501B4010E941E0B0E94040C8C
:100330006B017C01C93E23E0D20708F40BC1693E82
:10034000734008F407C1C03285E3D80708F002C142
:10035000B6016C1B7D0B80E090E00E94330C4B01DA
:100360005C01B60180E090E00E94330C9B01AC017F
:10037000C501B4010E948B0B20E030E048EC52E450
:100380000E94C10C0E94FD0BCB01770FAA0BBB0B87
:1003900084369105A105B10518F080E090E0DC01FC
:1003A00020916C4530916D452F5F3F4F20936C45F8
:1003B00030936D45C0909245D0909345E090944520
:1003C000F09095458C0D9D1DAE1DBF1D80939245EF
:1003D00090939345A0939445B093954580916C4537
:1003E00090916D458536910508F4B4C080E094E1A4
:1003F0000E94501390E080930E4090930F408091A4
:100400000E4090910F409C5E8093C2459093C345EF
:100410008091C2459091C3458D319441C0F081E0F7
:1004200094E18093C2459093C34581E090E080932E
:100430000E4090930F4060910E4070910F4080E00D
:1004400094E10E94581381E390E40E946910809126
:100450000E4090910F40019680930E4090930F4074
:100460006091924570919345809194459091954506
:100470000E94330C6B017C0160916C4570916D455D
:1004800080E090E00E94330C9B01AC01C701B601F3
:100490000E948B0B0E94040CC62F7F936F9381E404
:1004A00090E49F938F930E944F108091C24590914A
:1004B000C3456C2F0E9458138091C2459091C3454B
:1004C0000E9450131F928F938CE590E49F938F931B
:1004D0000E944F108091C2459091C3450196809330
:1004E000C2459093C3458091C2459091C3459F9367
:1004F0008F9385E890E49F938F930E944F106091B3
:100500000E4070910F4080E094E10E94581382EAFF
:1005100090E49F938F930E944F1080910E40909192
:100520000F409F938F938EE990E49F938F930E9447
:100530004F1010929245109293451092944510924C
:10054000954510926C4510926D458DB79EB74296B9
:100550008DBF9EBFDF91CF91FF90EF90DF90CF9046
:10056000BF90AF909F908F900895AF92BF92CF921F
:10057000DF92EF92FF920F931F93CF937C015B0169
:100580008A01FA01808191810E945013C82FC82EE0
:10059000D12C1F928F9384EC90E49F938F930E94B1
:1005A0004F10F501C082D182F801808191818C0DBC
:1005B0009D1DF70180839183808191819F938F930B
:1005C0008CED90E49F938F930E944F108DB79EB750
:1005D00008968DBF9EBFCF3150F084EF90E40E940B
:1005E000691061E0F801808191810E945813CF91D8
:1005F0001F910F91FF90EF90DF90CF90BF90AF9041
:10060000089544E651E46EE070E482EC95E40E94C3
:10061000B50242E651E46CE070E481EB95E40E949F
:10062000B50240E651E46AE070E48DE995E40E9489
:10063000B5024EE551E468E070E48FE995E40E946C
:10064000B5024CE551E466E070E487EA95E40E9467
:10065000B5024AE551E464E070E48FEA95E40E9453
:10066000B50248E551E462E070E48CEB95E40E9449
:10067000B50246E551E460E070E485EC95E40E9443
:10068000B50208950F931F93CF93DF938B0181E001
:1006900080936E45FB01808191810E945013D82F79
:1006A0008EE191E49F938F930E944F101F92DF93EE
:1006B00083E591E49F938F930E944F1084EF94E41D
:1006C0000E9469100E94EE000F900F900F900F9003
:1006D0000F900F90C1E01CC0F801808191818C0FB8
:1006E000911D0E9450131F928F931F92CF9380E40D
:1006F00091E49F938F930E944F1084EF94E40E94A3
:100700006910CF5F0F900F900F900F900F900F9088
:10071000DC1710F710926E45DF91CF911F910F916A
:10072000089561E080E094E10E94631361E080E35A
:1007300094E10E94631361E080E694E10E946313F8
:1007400061E080E994E10E94631361E080EC94E150
:100750000E94631361E080EF94E10E94631361E003
:1007600080E295E10E94631361E080E595E10E94DB
:10077000631308950E94D3050E94C305E0E6F8E0E4
:100780008581806885830E94C70A0E94FB050E94BC
:10079000F005E0E2F4E080818F7D808385898860C8
:1007A000858B8FE097E20197F1F700C000000E946F
:1007B000020678948FE097E20197F1F700C00000FD
:1007C0000E941B0A9FEF24E38CE091502040804060
:1007D000E1F700C000000E9401031092C745F894A1
:1007E0008091C7458F5F8093C7458B30A0F00E94F2
:1007F00050087894F8941092C74500E014E12EE078
:1008000030E442E955E462EC75E4809196459091BC
:1008100097450E94F30080917345882361F1809190
:100820009C458093A645109273458A30A1F08D3087
:1008300091F0E091744591E09E0F90937445F0E043
:10084000E957FA4B80839B3030F0109274458DE06D
:1008500090E00E9463108091A6458D3011F08A309F
:1008600051F4E0917445F0E0E957FA4B1082109290
:1008700074450E9455097894B2CF1F920F920FB61B
:100880000F9211240BB60F922F933F934F935F93C8
:100890006F937F938F939F93AF93BF93CF93DF9388
:1008A000EF93FF93F894C0E0DBE08C859D859695EF
:1008B00087959695879580937145909372458A8523
:1008C0009B85969587959695879580936F45909390
:1008D0007045609171457091724580E090E00E9492
:1008E000330C2DEB37E346E855E30E94C10C20E0C2
:1008F00030E040E850E40E94C10C9B01AC0160E094
:1009000070E080E792E40E948B0B0E94040C6093DD
:1009100096457093974581E08E837894FF91EF918F
:10092000DF91CF91BF91AF919F918F917F916F9107
:100930005F914F913F912F910F900BBE0F900FBE83
:100940000F901F9018951F920F920FB60F921124BF
:100950000BB60F922F933F934F935F936F937F93B9
:100960008F939F93AF93BF93EF93FF930E94E90AF6
:1009700080939C45E0E6F8E084818068848381E090
:1009800080937345FF91EF91BF91AF919F918F91AC
:100990007F916F915F914F913F912F910F900BBE7F
:1009A0000F900FBE0F901F901895853620F08FE4A2
:1009B0008093280A0895843140F49FE09093280A98
:1009C00081110DC01092280A08952FE4829FC00162
:1009D000112464E670E00E94B30E6093280A089523
:1009E000853620F08FE480932A0A0895843140F4FC
:1009F0009FE090932A0A81110DC010922A0A08954F
:100A00002FE4829FC001112464E670E00E94B30EBF
:100A100060932A0A0895853620F08FE480932C0A8B
:100A20000895843140F49FE090932C0A81110DC009
:100A300010922C0A08952FE4829FC001112464E6CD
:100A400070E00E94B30E60932C0A0895853620F062
:100A50008FE48093290A0895843140F49FE09093B5
:100A6000290A81110DC01092290A08952FE4829F4E
:100A7000C001112464E670E00E94B30E6093290A5D
:100A80000895853620F08FE480932B0A08958431F1
:100A900040F49FE090932B0A81110DC010922B0A15
:100AA00008952FE4829FC001112464E670E00E9443
:100AB000B30E60932B0A0895853620F08FE480935F
:100AC0002D0A0895843140F49FE090932D0A8111FE
:100AD0000DC010922D0A08952FE4829FC0011124A9
:100AE00064E670E00E94B30E60932D0A0895853687
:100AF00038F08FE490E08093780A9093790A089513
:100B0000843168F42FE030E02093780A3093790A3A
:100B1000811112C01092780A1092790A08952FE478
:100B2000829FC001112464E670E00E94B30E772713
:100B30006093780A7093790A0895853638F08FE4C7
:100B400090E080937A0A90937B0A0895843168F448
:100B50002FE030E020937A0A30937B0A811112C093
:100B600010927A0A10927B0A08952FE4829FC001A6
:100B7000112464E670E00E94B30E772760937A0A2E
:100B800070937B0A089583E08093E605E0E0FAE045
:100B900081E083838FEF81838FE486A387A38081A5
:100BA000836080830895E0E6F4E081818160818341
:100BB0008181826081838181846081838181886079
:100BC0008183818180618183818180628183E0E48E
:100BD000F4E08181806181838181806281830895D5
:100BE000E0E0FBE085E1818381E1848381E085832E
:100BF00081E480830895E0E0F2E08DE4808B81E081
:100C000086AF08950E94FB050E94F005E0E2F4E043
:100C100080818F7D808385898860858B0895089584
:100C2000CF93DF9300D0CDB7DEB787E895E40E947D
:100C300012108093A9459093AA454AE050E0BE0166
:100C40006F5F7F4F87E895E40E94E40E6093A945AB
:100C50007093AA45E981FA818081882329F086E68C
:100C600091E40E94691027C0862F972F8536910541
:100C7000F0F47F936F938BE791E49F938F930E949F
:100C80004F108091A9459091AA458093B3458093D8
:100C9000A5459F938F930E944F1081E080937545E7
:100CA0000F900F900F900F900F900F9004C081E95C
:100CB00091E40E9469100F900F90DF91CF910895F9
:100CC000E0917C458E2F90E0FC013197E930F105F1
:100CD00008F01CC1E658FF4F0C94C70E8091AA453E
:100CE0008F938091A9458F9384ED91E49F938F9387
:100CF0000E944F1084EF94E40E94691087EE91E403
:100D00000E9469108091A9450E94D5048091B34545
:100D10001F928F930E944F108FEF80937C4510920B
:100D200075450F900F900F900F900F900F900895B2
:100D30008091B3451F928F9385E092E49F938F93A8
:100D40000E944F1084EF94E40E94691087EE91E4B2
:100D50000E9469108091B3450E94F004109275457D
:100D60008FEF80937C450F900F900F900F90089518
:100D70008091B3451F928F9388E192E49F938F9364
:100D80000E944F1084EF94E40E94691087EE91E472
:100D90000E9469108091B3450E940B058FEF8093EC
:100DA0007C45109275450F900F900F900F9008950D
:100DB0008091B3451F928F938BE292E49F938F9320
:100DC0000E944F1084EF94E40E94691087EE91E432
:100DD0000E9469108FEF80937C458091B3450E94FB
:100DE0002605109275450F900F900F900F90089563
:100DF0008091B3451F928F938EE392E49F938F93DC
:100E00000E944F1084EF94E40E94691087EE91E4F1
:100E10000E9469108091B3450E944105109275456A
:100E20008FEF80937C450F900F900F900F90089557
:100E30008091B3451F928F9381E592E49F938F93A6
:100E40000E944F1084EF94E40E94691087EE91E4B1
:100E50000E9469108091B3450E945C05109275450F
:100E60008FEF80937C450F900F900F900F90089517
:100E70008091B3451F928F9384E692E49F938F9362
:100E80000E944F1084EF94E40E94691087EE91E471
:100E90000E9469108091B3450E9477058FEF80937F
:100EA0007C45109275450F900F900F900F9008950C
:100EB0008091AA458F938091A9458F9387E792E40B
:100EC0009F938F930E944F1084EF94E40E946910C7
:100ED00087EE91E40E9469108091A9450E949D05CA
:100EE0008FEF80937C45109275450F900F900F9077
:100EF0000F9008958AE892E49F938F930E944F1079
:100F00008FEF809381450F900F90089587E992E4C9
:100F10000E94691088EA92E40E94691083EB92E4CF
:100F20000E9469108EEB92E40E94691089EC92E4B1
:100F30000E94691084ED92E40E9469108FED92E4A2
:100F40000E9469108AEE92E40E94691085EF92E493
:100F50000E94691080E093E40E94691049E060E11A
:100F600070E487E895E40E94F60A80937C45089532
:100F7000CF9380918145813019F0823089F020C073
:100F80001092224080917545882319F00E946006D6
:100F90002FC00E9410068FE093E40E94691028C0C1
:100FA00081E293E40E9469108FEF8093C44580939F
:100FB00081451EC084EF94E40E946910CF5F01C098
:100FC000C0E0C830B8F345E060E170E487E895E43C
:100FD0000E94F60A809381458FE293E40E94691093
:100FE00082E593E40E94691082E693E40E9469100E
:100FF000CF910895CF938091C4458230A1F018F429
:10100000813031F026C0833089F08430A1F021C0D6
:101010008FE693E40E94691081E0809322408FEF75
:101020008093C4453BC00E94B80738C088ED93E464
:101030000E94691033C08AE893E40E9469108FEF20
:10104000809386452BC084EF94E40E946910CF5FA3
:1010500001C0C0E0CA30B8F389E993E40E94691086
:101060008DEA93E40E94691082EC93E40E94691077
:1010700084ED93E40E94691084EE93E40E94691069
:1010800045E060E170E487E895E40E94F60A809309
:10109000C4458FEF8093814580937C45CF9108951F
:1010A000CF9380912240882301F180E090E00E945C
:1010B000430A880F880F880FCAE6C80F87598336FE
:1010C00080F080E00E94D50481EF93E40E946910D3
:1010D0008DE094E49F938F930E944F100F900F9098
:1010E000C0E08C2F0E94D50401C0C0E08C2F90E09E
:1010F000CF910895E091B4458E2F90E0FC01319797
:10110000E930F10508F06CC0ED57FF4F0C94C70EA5
:101110004EE050E46DE275E482EC95E40E944203F7
:101120008FEF8093B44508954CE050E46BE275E492
:1011300081EB95E40E9442038FEF8093B4450895BC
:101140004AE050E469E275E48DE995E40E944203C7
:101150008FEF8093B445089548E050E467E275E46A
:101160008FE995E40E9442038FEF8093B445089580
:1011700046E050E465E275E487EA95E40E944203A4
:101180008FEF8093B445089544E050E463E275E442
:101190008FEA95E40E9442038FEF8093B44508954F
:1011A00042E050E461E275E48CEB95E40E94420376
:1011B0008FEF8093B445089540E050E46FE175E40B
:1011C00085EC95E40E9442038FEF8093B445089527
:1011D00087E394E40E9469108FEF80938645089519
:1011E00088EA92E40E94691083EB92E40E946910FD
:1011F0008EEB92E40E94691089EC92E40E946910DF
:1012000084ED92E40E9469108FED92E40E946910CF
:101210008AEE92E40E94691085EF92E40E946910C0
:1012200080E093E40E94691049E060E170E487E89F
:1012300095E40E94F60A8093B44508958091914503
:10124000823039F0833079F08130A9F40E947A0835
:10125000089585E494E40E9469100E9491038FEF41
:1012600080939145089585E594E40E9469108FEF7D
:1012700080938645089581E694E40E94691084E78E
:1012800094E40E94691081E994E40E94691085EA5F
:1012900094E40E94691049E060E170E487E895E415
:1012A0000E94F60A809391450895CF9380918645D8
:1012B000823039F0833041F08130A9F40E94FA077E
:1012C00031C00E941E092EC084EB94E49F938F933B
:1012D0000E944F100F900F9025C084EF94E40E945D
:1012E0006910CF5F01C0C0E0CB30B8F383ED94E468
:1012F0000E9469108FED94E40E9469108BEE94E4D3
:101300000E94691086EF94E40E94691043E060E156
:1013100070E487E895E40E94F60A809386458FEF93
:101320008093C445CF910895E0E0F4E08CE08183A0
:1013300098E093878487E0E0F9E081E0838397E099
:1013400096838583089590E0880F991F862B80935C
:1013500007098091050985FD0DC08091050982FD71
:1013600009C08091050983FD05C08091050983703E
:10137000833079F708950F931F93CF938B01C42F78
:1013800061E00E94A30990E01DC08091050985FDE0
:101390000DC08091050982FD09C08091050983FD7A
:1013A00005C0809105098370833079F7F801E90F52
:1013B000F11D8091080980839F5FC91719F082E0B1
:1013C000809304099C1708F387E080930409CF9168
:1013D0001F910F910895CF93C62F60E00E94A3093B
:1013E0002FE58AEE90E0215080409040E1F700C068
:1013F0000000C09308098091050985FD0DC080910A
:10140000050982FD09C08091050983FD05C0809111
:1014100005098370833079F78091050984FF04C042
:101420008FE295E40E946910E0E0F9E08481836036
:101430008483CF910895E0E2F4E081818860818324
:101440008481886084830E94C70A0E9494098FE186
:101450009EE40197F1F700C000008DE395E40E943F
:10146000691061EE88E30E94EB099FE52AEE80E0B7
:10147000915020408040E1F700C000006AEB88E313
:101480000E94EB0908951F93CF93DF93CDB7DEB78A
:101490002697CDBFDEBF182F6CEA88E30E94EB09C8
:1014A0002FE58AEE90E0215080409040E1F700C0A7
:1014B000000046E0BE016F5F7F4F88E30E94BB09DA
:1014C000113099F56A81862F90E0A0E0B0E0BA2F44
:1014D000A92F982F88272B81822B880F991FAA1F4D
:1014E000BB1F880F991FAA1FBB1F880F991FAA1F18
:1014F000BB1F880F991FAA1FBB1F2C8122952F701D
:10150000BC01CD01622B0E94330C20E030E048EC9E
:1015100052E40E94C10C20E030E040E855E30E9414
:10152000C10C0E94040C862F2BC06C816F70862F1B
:1015300090E0A0E0B0E0BA2FA92F982F88272D8146
:10154000822BBA2FA92F982F88272E81BC01CD017D
:10155000622B0E94330C20E030E048E453E40E9408
:10156000C10C20E030E040E855E30E94C10C20E0CF
:1015700030E048E452E40E941E0B0E94040C862FC7
:101580002696CDBFDEBFDF91CF911F910895E0E297
:10159000F4E081E0818382E08283E0E6F8E083E8A2
:1015A00096E0808791878681806C868383E290E4D1
:1015B0008093CA459093CB4508959091640895FF18
:1015C000FCCF8093620808950E94DD0A80E090E0DD
:1015D0000895CF93809164088823E4F7C091600850
:1015E0008C2F0E94DD0A8C2FCF910895EF92FF92ED
:1015F0000F931F93CF93DF937C018B01D42FC0E017
:1016000013C0EC2FF0E0EE0FFF1FE00FF11F4D2F86
:1016100050E060817181C7010E943910892B19F453
:1016200081E08C0F04C0CF5FCD1758F38FEFDF91AF
:10163000CF911F910F91FF90EF9008955058BB27C5
:10164000AA270E94360B0C94870C0E94790C38F064
:101650000E94800C20F039F49F3F19F426F40C947A
:10166000760C0EF4E095E7FB0C94700CE92F0E94C9
:10167000980C58F3BA17620773078407950720F090
:1016800079F4A6F50C94BA0C0EF4E0950B2EBA2F53
:10169000A02D0B01B90190010C01CA01A001112478
:1016A000FF27591B99F0593F50F4503E68F11A1624
:1016B000F040A22F232F342F4427585FF3CF4695B5
:1016C00037952795A795F0405395C9F77EF41F16D7
:1016D000BA0B620B730B840BBAF09150A1F0FF0FA1
:1016E000BB1F661F771F881FC2F70EC0BA0F621F8D
:1016F000731F841F48F4879577956795B795F7957D
:101700009E3F08F0B0CF9395880F08F09927EE0F11
:101710009795879508950E949F0B0C94870C0E94C3
:10172000800C58F00E94790C40F029F45F3F29F0BA
:101730000C94700C51110C94BB0C0C94760C0E9400
:10174000980C68F39923B1F3552391F3951B550B2E
:10175000BB27AA2762177307840738F09F5F5F4F84
:10176000220F331F441FAA1FA9F335D00E2E3AF0C3
:10177000E0E832D091505040E695001CCAF72BD0DB
:10178000FE2F29D0660F771F881FBB1F261737072C
:101790004807AB07B0E809F0BB0B802DBF01FF275E
:1017A00093585F4F3AF09E3F510578F00C94700CBF
:1017B0000C94BB0C5F3FE4F3983ED4F38695779589
:1017C0006795B795F7959F5FC9F7880F911D969517
:1017D000879597F90895E1E0660F771F881FBB1F73
:1017E000621773078407BA0720F0621B730B840B20
:1017F000BA0BEE1F88F7E09508950E94040C6894D8
:10180000B1110C94BB0C08950E94A00C88F09F5756
:1018100098F0B92F9927B751B0F0E1F0660F771F14
:10182000881F991F1AF0BA95C9F714C0B13091F00A
:101830000E94BA0CB1E008950C94BA0C672F782F6F
:101840008827B85F39F0B93FCCF3869577956795CF
:10185000B395D9F73EF490958095709561957F4F3B
:101860008F4F9F4F0895E89409C097FB3EF49095E1
:101870008095709561957F4F8F4F9F4F9923A9F069
:10188000F92F96E9BB279395F695879577956795F8
:10189000B795F111F8CFFAF4BB0F11F460FF1BC03C
:1018A0006F5F7F4F8F4F9F4F16C0882311F096E9CF
:1018B00011C0772321F09EE8872F762F05C066237D
:1018C00071F096E8862F70E060E02AF09A95660F36
:1018D000771F881FDAF7880F9695879597F90895EF
:1018E00097F99F6780E870E060E008959FEF80ECD3
:1018F000089500240A941616170618060906089576
:1019000000240A9412161306140605060895092EDB
:101910000394000C11F4882352F0BB0F40F4BF2B4A
:1019200011F460FF04C06F5F7F4F8F4F9F4F08958A
:1019300057FD9058440F551F59F05F3F71F0479580
:10194000880F97FB991F61F09F3F79F08795089565
:10195000121613061406551FF2CF4695F1DF08C084
:10196000161617061806991FF1CF869571056105A1
:1019700008940895E894BB2766277727CB0197F949
:1019800008950E94D40C0C94870C0E94790C38F0B6
:101990000E94800C20F0952311F00C94700C0C9494
:1019A000760C11240C94BB0C0E94980C70F3959F3C
:1019B000C1F3950F50E0551F629FF001729FBB2746
:1019C000F00DB11D639FAA27F00DB11DAA1F649FE2
:1019D0006627B00DA11D661F829F2227B00DA11D95
:1019E000621F739FB00DA11D621F839FA00D611D1B
:1019F000221F749F3327A00D611D231F849F600D3C
:101A0000211D822F762F6A2F11249F5750409AF064
:101A1000F1F088234AF0EE0FFF1FBB1F661F771FF0
:101A2000881F91505040A9F79E3F510580F00C94BB
:101A3000700C0C94BB0C5F3FE4F3983ED4F3869596
:101A400077956795B795F795E7959F5FC1F7FE2B5B
:101A5000880F911D9695879597F90895FA01EE0FD5
:101A6000FF1F309621053105A1F16115710561F463
:101A70008038BFE39B0749F168949038810561F095
:101A80008038BFEF9B0741F099234AF5FF3FE105FE
:101A90003105210519F1E8940894E795D901AA23A5
:101AA00029F4AB2FBE2FF85FD0F310C0FF5F70F4A6
:101AB000A695E0F7F73950F019F0FF3A38F49F7720
:101AC0009F930DD00F9007FC9058089546F00C940A
:101AD000760C60E070E080E89FE308954FE79F7721
:101AE0005F934F933F932F930E94290E2F913F9125
:101AF0004F915F910E94C10C0C94860D29F416F051
:101B00000C94700C0C94BA0C0C94760C0E94A00CE3
:101B1000A8F39638A0F707F80F92E8942BE33AEA77
:101B200048EB5FE70E94D70C0F920F920F924DB7D0
:101B30005EB70F920E94710EE8E1F1E00E94B80DCD
:101B40004F915F91EF91FF91E595EE1FFF1F49F0D7
:101B5000FE57E0684427EE0F441FFA95E1F74195E0
:101B6000550B0E94EB0D0F9007FE0C94DF0D0895AE
:101B7000DF93CF931F930F93FF92EF92DF927B013E
:101B80008C01689406C0DA2EEF010E94D40CFE018D
:101B9000E894A5912591359145915591A6F3EF01D2
:101BA0000E94360BFE019701A801DA9469F7DF90D5
:101BB000EF90FF900F911F91CF91DF9108959B01BE
:101BC000AC0160E070E080E89FE30C948B0B0C9418
:101BD000700C0C94A50E0E94A00CD8F39923C9F3A5
:101BE000940F511DA3F39150504094F059F0882365
:101BF00032F0660F771F881F91505040C1F79E3F0B
:101C000051052CF7880F911D9695879597F90895A2
:101C10005F3FACF0983E9CF0BB2786957795679523
:101C2000B79508F4B1609395C1F7BB0F58F711F45D
:101C300060FFE8CF6F5F7F4F8F4F9F4FE3CF0C94D4
:101C4000BB0C16F00C94A50E0C94760C68940C94B6
:101C5000700C0E94A00CA8F39923C1F3AEF3DF939C
:101C6000CF931F930F93FF92C92FDD2788232AF06C
:101C70002197660F771F881FDAF720E030E040E8F1
:101C80005FEB9FE3883920F0803E38F021968F7714
:101C90000E941F0BE0E4F1E004C00E941F0BEDE680
:101CA000F1E00E94B80D8B01BE01EC01FB2E6F57D5
:101CB00071097595771F880B990B0E94350C28E1E7
:101CC00032E741E35FE30E94D40CAF2D9801AE01EF
:101CD000FF900F911F91CF91DF910E94360B0C94D2
:101CE000870CFA01DC01AA0FBB1F9B01AC01BF5797
:101CF00028F4222733274427507820C0B75190F486
:101D0000AB2F0024469537952795011CA395D2F358
:101D1000002071F0220F331F441FB395DAF30ED069
:101D20000C941E0B61307105A0E88A07B94630F4A7
:101D30009B01AC016627772788279078309621F0A1
:101D4000208331834283538308959F3F31F0915024
:101D500020F4879577956795B795880F911D96958F
:101D6000879597F9089597FB072E16F4009407D0EE
:101D700077FD09D00E94D00E07FC05D03EF4909567
:101D800081959F4F0895709561957F4F0895EE0F4F
:101D9000FF1F0024001C0BBE0790F691E02D099454
:101DA000AA1BBB1B51E107C0AA1FBB1FA617B70781
:101DB00010F0A61BB70B881F991F5A95A9F780959D
:101DC0009095BC01CD0108953F924F925F926F9222
:101DD0007F928F929F92AF92BF92CF92DF92EF92BB
:101DE000FF920F931F93CF93DF935C016B017A01F6
:101DF0006115710519F0FB0180839183E114F104F1
:101E000029F0C7010297839708F0E5C0E501219604
:101E1000F5011081812F90E00E943010892B11F084
:101E20005E01F4CF1D3229F42196F501118101E004
:101E300007C01B3221F4E5012296F501118100E073
:101E4000E114F10409F1F0E1EF16F10429F43FC0C7
:101E500010E3E114F10421F128E0E216F10401F1AC
:101E600054F4E2E0EE16F10421F5812C912CA12C22
:101E7000B0E4BB2E3EC0FAE0EF16F10439F020E1E9
:101E8000E216F104B1F430C0103319F1FAE0EF2E8C
:101E9000F12CACEC8A2E982CA82CACE0BA2E29C0E0
:101EA00078E0E72EF12C812C912CA12CE0E1BE2EC4
:101EB00020C060E070E080E090E897010F2C000CFB
:101EC000440B550B0E948B1349015A0112C0103369
:101ED00059F488818F7D883509F0BACF198122960F
:101EE000026080E1E82EF12C812C912CA12C68E07D
:101EF000B62E40E060E070E0CB0127010F2C000C13
:101F000066087708FE0150ED352E310E29E02315C5
:101F100070F42FEB210F2A3118F439EC332E06C060
:101F20002FE9210F2A3118F529EA322E310E232DFF
:101F300030E02E153F05DCF447FD16C086169706E7
:101F4000A806B90670F0A30192010E947B13630DED
:101F5000711D811D911D61307105810520E8920779
:101F600010F04FEF01C041E021961081CBCF202F20
:101F70002170C114D10471F0442329F02197F60196
:101F8000C083D18307C001FF19C02297F601C08327
:101F9000D18314C047FF12C0222329F060E070E013
:101FA00080E090E804C06FEF7FEF8FEF9FE722E2C1
:101FB00030E02093CE453093CF4509C0222381F0F5
:101FC00090958095709561957F4F8F4F9F4F462FCD
:101FD000372F282F12C040E030E020E090E00DC005
:101FE00097FFF5CF82E290E08093CE459093CF4566
:101FF0006FEF7FEF8FEF9FE7EACF642F732F822F72
:10200000DF91CF911F910F91FF90EF90DF90CF90D4
:10201000BF90AF909F908F907F906F905F904F9008
:102020003F900895FC0188279927E8942191203258
:10203000E9F3293010F02E30C8F32B3241F02D3265
:1020400039F4689404C00E944710820F911D2191B9
:1020500020532A30C0F31EF4909581959F4F089528
:1020600091110C949D12803219F089508550C8F757
:102070000895FB01DC014150504030F08D910190FA
:10208000801919F40020B9F7881B990B08957AE09C
:10209000979F902D879F802D910D11240895CF93A8
:1020A000DF93CDB7DEB7AE014B5F5F4FFA016191B1
:1020B0007191AF018091CA459091CB450E949910D2
:1020C000DF91CF9108956091CA457091CB450C94F2
:1020D000B6120F931F93CF93DF93E091CA45F0910F
:1020E000CB45238121FF1BC08C01D0E0C0E0F8016B
:1020F00081918F016091CA457091CB45DB011896A3
:10210000ED91FC911997882331F00995892B79F38A
:10211000DFEFCFEFECCF8AE00995892B19F08FEF35
:102120009FEF02C08D2F9C2FDF91CF911F910F91B8
:1021300008952F923F924F925F926F927F928F926B
:102140009F92AF92BF92CF92DF92EF92FF920F9346
:102150001F93CF93DF93CDB7DEB72B97CDBFDEBFF5
:102160006C017B018A01FC0116821782838181FF49
:10217000CCC1CE0101963C01F6019381F70193FD9C
:10218000859193FF81917F01882309F4BAC185323B
:1021900039F493FD859193FF81917F01853229F474
:1021A000B60190E00E94B612E7CF912C212C312C81
:1021B000FFE1F315D8F08B3279F038F4803279F002
:1021C0008332A1F4232D20611DC08D3261F0803354
:1021D00069F4232D216016C0832D8260382EE32DF3
:1021E000E4603E2E2AC0F32DF8601DC037FC2DC0E0
:1021F00020ED280F2A3040F08E32B9F436FC81C130
:10220000232D2064322E19C036FE06C08AE0989E27
:10221000200D1124922E11C0EAE02E9E200D1124D3
:10222000222EF32DF0623F2E08C08C3621F4832D30
:102230008068382E02C0883641F4F70193FD8591FD
:1022400093FF81917F018111B3CF982F9F7D95548A
:10225000933028F40C5F1F4F9FE399830DC08336A2
:1022600031F0833771F0833509F059C021C0F8018E
:10227000808189830E5F1F4F88248394912C5301A2
:1022800013C02801F2E04F0E511CF801A080B1806C
:1022900036FE03C0692D70E002C06FEF7FEFC5010D
:1022A0000E94AB124C018201F32DFF773F2E16C026
:1022B000280122E0420E511CF801A080B18036FEB8
:1022C00003C0692D70E002C06FEF7FEFC5010E946F
:1022D000A0124C01F32DF0683F2E820133FC1BC08D
:1022E000822D90E088169906B0F4B60180E290E065
:1022F0000E94B6122A94F4CFF50137FC859137FE7F
:1023000081915F01B60190E00E94B61221102A94DB
:1023100021E0821A91088114910471F7E8C0843693
:1023200011F0893641F5F80137FE07C060817181EF
:10233000828193810C5F1F4F08C060817181072EDD
:10234000000C880B990B0E5F1F4FF32DFF763F2E6D
:1023500097FF09C090958095709561957F4F8F4F3D
:102360009F4FF0683F2E2AE030E0A3010E94F21256
:10237000882E861845C0853731F4232D2F7EB22E46
:102380002AE030E025C0932D997FB92E8F36C1F019
:1023900018F4883579F0B5C0803719F0883721F006
:1023A000B0C0E92FE061BE2EB4FE0DC0FB2DF4607D
:1023B000BF2E09C034FE0AC0292F2660B22E06C0E7
:1023C00028E030E005C020E130E002C020E132E04A
:1023D000F801B7FE07C060817181828193810C5F33
:1023E0001F4F06C06081718180E090E00E5F1F4F3B
:1023F000A3010E94F212882E8618FB2DFF773F2E34
:1024000036FE0DC0232D2E7FA22E891458F434FEE3
:102410000BC032FC09C0832D8E7EA82E05C0B82CBF
:10242000A32C03C0B82C01C0B92CA4FE0FC0FE0120
:10243000E80DF11D8081803321F49A2D997EA92E1B
:1024400009C0A2FE06C0B394B39404C08A2D867856
:1024500009F0B394A3FC11C0A0FE06C0B21488F426
:10246000280C922C9B180EC0B21460F4B60180E2C6
:1024700090E00E94B612B394F7CFB21418F42B1860
:1024800002C0982C212CA4FE10C0B60180E390E07D
:102490000E94B612A2FE17C0A1FC03C088E790E01C
:1024A00002C088E590E0B6010CC08A2D867859F00C
:1024B000A1FE02C08BE201C080E2A7FC8DE2B60162
:1024C00090E00E94B612891438F4B60180E390E0DF
:1024D0000E94B6129A94F7CF8A94F301E80DF11D89
:1024E0008081B60190E00E94B6128110F5CF2220C3
:1024F00009F442CEB60180E290E00E94B6122A941E
:10250000F6CFF6018681978102C08FEF9FEF2B9661
:10251000CDBFDEBFDF91CF911F910F91FF90EF9064
:10252000DF90CF90BF90AF909F908F907F906F90F3
:102530005F904F903F902F90089599278827089596
:10254000FC010590615070400110D8F7809590957E
:102550008E0F9F1F0895FC01615070400190011083
:10256000D8F7809590958E0F9F1F08950F931F9316
:10257000CF93DF93FB01238121FD03C08FEF9FEFFA
:102580002CC022FF16C04681578124813581421715
:10259000530744F4A081B1819D012F5F3F4F2083F9
:1025A00031838C93268137812F5F3F4F268337837A
:1025B00014C08B01EC01FB010084F185E02D09952D
:1025C000892BE1F6D80116968D919C91179701966B
:1025D00016968D939C931797CE01DF91CF911F9103
:1025E0000F910895FA01AA27283051F1203181F185
:1025F000E8946F936E7F6E5F7F4F8F4F9F4FAF4F0B
:10260000B1E03ED0B4E03CD0670F781F891F9A1F1D
:10261000A11D680F791F8A1F911DA11D6A0F711DD1
:10262000811D911DA11D20D009F468943F912AE0DD
:10263000269F11243019305D3193DEF6CF010895C5
:10264000462F4770405D4193B3E00FD0C9F7F6CFF6
:10265000462F4F70405D4A3318F0495D31FD4052BE
:10266000419302D0A9F7EACFB4E0A6959795879554
:1026700077956795BA95C9F7009761057105089533
:102680009B01AC010A2E06945795479537952795DF
:10269000BA95C9F7620F731F841F951FA01D089577
:1026A00003D0808199270895FC01E050FC4E0895E5
:1026B000262F0E9454130080021619F00E94641302
:1026C000019701970895262FAF93BF93E0E0F0E1C3
:1026D000328131FDFDCF3DE934BF33E13083DC0190
:1026E000A050BC4E2C933DE934BF20E020830196DE
:1026F000BF91AF910895DB018F939F930E94AD131B
:10270000BF91AF91A29F800D911DA39F900DB29F8D
:10271000900D11240895A1E21A2EAA1BBB1BFD01E6
:102720000DC0AA1FBB1FEE1FFF1FA217B307E407B0
:10273000F50720F0A21BB30BE40BF50B661F771F08
:10274000881F991F1A9469F76095709580959095E8
:102750009B01AC01BD01CF0108950E94B813A59F54
:10276000900DB49F900DA49F800D911D112408958C
:10277000A29FB001B39FC001A39F700D811D1124C2
:10278000911DB29F700D811D1124911D0895F89423
:02279000FFCF79
:10279200010001000100010001000100010001002F
:1027A2000D450F45114513451545174519451B455F
:1027B2001D45010000000200000000E40A000000C4
:1027C200007570646174656420616464726573731A
:1027D2000061766572616765206469666665726527
:1027E2006E63652069733A2025640A007468652067
:1027F20076616C7565207072696E74656420746FA1
:102802002074686520616464726573732069733A29
:102812002025640A0043757272656E7420616464D7
:102822007265737320757064617465643A202564FF
:102832000A004E756D626572206F66206164647273
:102842006573736573206F6363757069656420696E
:10285200733A20006E5F636F756E742061647265F7
:1028620073732069733A2025640D0A0063757272CE
:10287200656E74206164726573732069733A2025F2
:10288200640D0A0073746F72616765206973206654
:10289200756C6C2C20726577726974696E6720772B
:1028A200696C6C20636F6D6D656E63650D006E758E
:1028B2006D626572206F66206F636375706965640F
:1028C200206164726573736573206973203A200016
:1028D200446966666572656E6365206E7220257551
:1028E200203A2025750050152015F014C0149014BC
:1028F2006014301400144572726F723A20496E7679
:10290200616C696420696E707574005065726365EC
:102912006E746167652076616C75653A2025640A7C
:10292200004572726F723A2056616C7565206F7540
:1029320074206F662072616E67652C20706C656111
:1029420073652073656C6563742077697468696E5A
:10295200207468652072616E6765206F6620302D75
:102962003130300046616E20312073657420746FFF
:10297200203A25640D0A0043686F6F736520796FF2
:102982007572206E6578742070657263656E74610D
:1029920067653A0D0046616E2032207365742074BB
:1029A2006F203A25640D0A0046616E20332073655C
:1029B2007420746F203A25640D0A0046616E20343B
:1029C2002073657420746F203A25640D0A004661F5
:1029D2006E20352073657420746F203A25640D0AC9
:1029E2000046616E20362073657420746F203A258C
:1029F200640D0A0046616E20372073657420746F7F
:102A0200203A25640D0A0046616E203820736574F1
:102A120020746F203A25640D0A00476F696E6720A3
:102A22004261636B2D3E0043686F6F736520796F5F
:102A320075722066616E0D0031203D2046616E2068
:102A4200310D0032203D2046616E20320D003320D0
:102A52003D2046616E20330D0034203D2046616EDC
:102A620020340D0035203D2046616E20350D0036A4
:102A7200203D2046616E20360D0037203D20466104
:102A82006E20370D0038203D2046616E20380D0043
:102A920039203D20476F204261636B2D3E0D00457A
:102AA2006E7465722050657263656E746167650D40
:102AB20000476F696E67206261636B2D3E0D0053A4
:102AC20074617274204D656E75203E204D6F646591
:102AD20073203E204D616E75616C20737065656474
:102AE2000D0031203D2050657263656E746167652B
:102AF2000D0032203D20476F204261636B0D004183
:102B020075746F6D617469632073706565642061AB
:102B120063746976617465640D00476F696E67203E
:102B22006261636B202D3E0D005374617274204DFF
:102B3200656E75203E204D6F6465730D0031203D3A
:102B4200204175746F6D61746963205370656564AB
:102B52000D0032203D204D616E75616C2053706511
:102B620065640D0033203D204164646974696F6EB1
:102B7200616C0D0034203D20476F204261636B0D74
:102B8200004552524F523A20737065656420697352
:102B92002073657420746F207A65726F00455252FB
:102BA2004F522072656164696E67206461746120AE
:102BB20066726F6D2074656D7072617475726520D6
:102BC20073656E736F7200476F696E67204261634F
:102BD2006B2D3E0D00657261736520616C6C206423
:102BE2006174610D00476F696E67206261636B0DEE
:102BF200005374617274204D656E75203E204461ED
:102C020074610D0031203D2052656164206461745D
:102C1200612066726F6D207468652066616E730D47
:102C22000032203D20457261736520616C6C206426
:102C32006174610D0033203D20476F204261636B58
:102C42002D3E0D00796F7520686176652063686F8F
:102C520073656E20746865207468697264206D659E
:102C62006E75005374617274204D656E750D00317E
:102C7200203D204D6F646573200D0032203D2044BD
:102C8200617461200D0033203D20436F6E666967D9
:102C920075726520616464726573730D0031003270
:102CA2000033003400350036003700380039005058
:102CB200152015F014C01490146014301400142060
:102CC200746172676574204E41434B20002D2D2D97
:102CD2002D20456E61626C656420636F6E6E656364
:102CE20074696F6E20776974682061687431302D61
:0C2CF20073656E736F72202D2D2D2D0068
:00000001FF
